{
  "contractName": "FLContract",
  "abi": [
    {
      "anonymous": false,
      "inputs": [
        {
          "indexed": true,
          "internalType": "uint256",
          "name": "index",
          "type": "uint256"
        },
        {
          "indexed": false,
          "internalType": "string",
          "name": "weights",
          "type": "string"
        }
      ],
      "name": "WeightsStored",
      "type": "event"
    },
    {
      "inputs": [
        {
          "internalType": "string",
          "name": "w",
          "type": "string"
        }
      ],
      "name": "storeWeights",
      "outputs": [],
      "stateMutability": "nonpayable",
      "type": "function"
    },
    {
      "inputs": [],
      "name": "getWeightCount",
      "outputs": [
        {
          "internalType": "uint256",
          "name": "",
          "type": "uint256"
        }
      ],
      "stateMutability": "view",
      "type": "function",
      "constant": true
    },
    {
      "inputs": [
        {
          "internalType": "uint256",
          "name": "index",
          "type": "uint256"
        }
      ],
      "name": "getWeight",
      "outputs": [
        {
          "internalType": "string",
          "name": "",
          "type": "string"
        }
      ],
      "stateMutability": "view",
      "type": "function",
      "constant": true
    }
  ],
  "bytecode": "0x608060405234801561001057600080fd5b506108ce806100206000396000f3fe608060405234801561001057600080fd5b50600436106100415760003560e01c80631ebffdba14610046578063b99ce9fc14610062578063d851fdfd14610080575b600080fd5b610060600480360381019061005b9190610374565b6100b0565b005b61006a610128565b60405161007791906103d6565b60405180910390f35b61009a6004803603810190610095919061041d565b610132565b6040516100a791906104c9565b60405180910390f35b80600080600154815260200190815260200160002090816100d191906106f7565b506001547f86c878157fff54e11672f8273e76e7aa3586ccdb8a4bf188891b26c0c4f7d34b8260405161010491906104c9565b60405180910390a2600180600082825461011e91906107f8565b9250508190555050565b6000600154905090565b60606001548210610178576040517f08c379a000000000000000000000000000000000000000000000000000000000815260040161016f90610878565b60405180910390fd5b60008083815260200190815260200160002080546101959061051a565b80601f01602080910402602001604051908101604052809291908181526020018280546101c19061051a565b801561020e5780601f106101e35761010080835404028352916020019161020e565b820191906000526020600020905b8154815290600101906020018083116101f157829003601f168201915b50505050509050919050565b6000604051905090565b600080fd5b600080fd5b600080fd5b600080fd5b6000601f19601f8301169050919050565b7f4e487b7100000000000000000000000000000000000000000000000000000000600052604160045260246000fd5b61028182610238565b810181811067ffffffffffffffff821117156102a05761029f610249565b5b80604052505050565b60006102b361021a565b90506102bf8282610278565b919050565b600067ffffffffffffffff8211156102df576102de610249565b5b6102e882610238565b9050602081019050919050565b82818337600083830152505050565b6000610317610312846102c4565b6102a9565b90508281526020810184848401111561033357610332610233565b5b61033e8482856102f5565b509392505050565b600082601f83011261035b5761035a61022e565b5b813561036b848260208601610304565b91505092915050565b60006020828403121561038a57610389610224565b5b600082013567ffffffffffffffff8111156103a8576103a7610229565b5b6103b484828501610346565b91505092915050565b6000819050919050565b6103d0816103bd565b82525050565b60006020820190506103eb60008301846103c7565b92915050565b6103fa816103bd565b811461040557600080fd5b50565b600081359050610417816103f1565b92915050565b60006020828403121561043357610432610224565b5b600061044184828501610408565b91505092915050565b600081519050919050565b600082825260208201905092915050565b60005b83811015610484578082015181840152602081019050610469565b60008484015250505050565b600061049b8261044a565b6104a58185610455565b93506104b5818560208601610466565b6104be81610238565b840191505092915050565b600060208201905081810360008301526104e38184610490565b905092915050565b7f4e487b7100000000000000000000000000000000000000000000000000000000600052602260045260246000fd5b6000600282049050600182168061053257607f821691505b602082108103610545576105446104eb565b5b50919050565b60008190508160005260206000209050919050565b60006020601f8301049050919050565b600082821b905092915050565b6000600883026105ad7fffffffffffffffffffffffffffffffffffffffffffffffffffffffffffffffff82610570565b6105b78683610570565b95508019841693508086168417925050509392505050565b6000819050919050565b60006105f46105ef6105ea846103bd565b6105cf565b6103bd565b9050919050565b6000819050919050565b61060e836105d9565b61062261061a826105fb565b84845461057d565b825550505050565b600090565b61063761062a565b610642818484610605565b505050565b5b818110156106665761065b60008261062f565b600181019050610648565b5050565b601f8211156106ab5761067c8161054b565b61068584610560565b81016020851015610694578190505b6106a86106a085610560565b830182610647565b50505b505050565b600082821c905092915050565b60006106ce600019846008026106b0565b1980831691505092915050565b60006106e783836106bd565b9150826002028217905092915050565b6107008261044a565b67ffffffffffffffff81111561071957610718610249565b5b610723825461051a565b61072e82828561066a565b600060209050601f831160018114610761576000841561074f578287015190505b61075985826106db565b8655506107c1565b601f19841661076f8661054b565b60005b8281101561079757848901518255600182019150602085019450602081019050610772565b868310156107b457848901516107b0601f8916826106bd565b8355505b6001600288020188555050505b505050505050565b7f4e487b7100000000000000000000000000000000000000000000000000000000600052601160045260246000fd5b6000610803826103bd565b915061080e836103bd565b9250828201905080821115610826576108256107c9565b5b92915050565b7f696e646578206f7574206f662072616e67650000000000000000000000000000600082015250565b6000610862601283610455565b915061086d8261082c565b602082019050919050565b6000602082019050818103600083015261089181610855565b905091905056fea2646970667358221220a657f48a481bf09be84131fb1c0756ae94c7debbd87463de7baa02993e4fe84b64736f6c63430008130033",
  "immutableReferences": {},
  "source": "// SPDX-License-Identifier: MIT\npragma solidity ^0.8.19;\n\ncontract FLContract {\n    mapping(uint256 => string) private weights;\n    uint256 private weightCount;\n\n    event WeightsStored(uint256 indexed index, string weights);\n\n    function storeWeights(string memory w) public {\n        weights[weightCount] = w;\n        emit WeightsStored(weightCount, w);\n        weightCount += 1;\n    }\n\n    function getWeightCount() public view returns (uint256) {\n        return weightCount;\n    }\n\n    function getWeight(uint256 index) public view returns (string memory) {\n        require(index < weightCount, \"index out of range\");\n        return weights[index];\n    }\n}\r\n",
  "sourcePath": "A:\\4-2\\HealthTrust-FL\\blockchain\\contracts\\FLContract.sol",
  "compiler": {
    "name": "solc",
    "version": "0.8.19+commit.7dd6d404.Emscripten.clang"
  },
  "schemaVersion": "3.4.16",
  "updatedAt": "2026-02-12T06:49:58.715Z",
  "networkType": "ethereum",
  "devdoc": {
    "kind": "dev",
    "methods": {},
    "version": 1
  },
  "userdoc": {
    "kind": "user",
    "methods": {},
    "version": 1
  }
}